:02000000FB28DB
:0C00060021308312CD00CD0B062808002D
:06001200000000000800E0
:0C001800831215088A00140882000800FA
:1000240033308312CD00CD0B1528000000000800EA
:1000340002308312CC004930CD00CD0B1F28CC0BED
:080044001F2800000000080065
:10004C0083121908C1000130C0004108031932287D
:10005C00C00D4010FF3E2C2840089D0040099C001C
:10006C00180884009B019A011A08073C031C5E289F
:10007C001C08800584171C08800509201D088004B5
:10008C00092084131D080005C00003195A281A08FA
:10009C00C1000130C000410803195828C00D4010A0
:1000AC00FF3E522840089B04032003209A0A3A285A
:0600BC001B08C000080053
:1000C20083121908C1000130C000410803196D28CC
:1000D200C00D4010FF3E672840089B00C009180869
:1000E2008400400880058417400880051A201B08F8
:1000F2008004841312201B0800059A001A08003A93
:100102000130031900309A001A201A08C0000800B2
:100112000C208A110A128000840A940A0319950A93
:08012200C003031D8928080039
:10012A0083121908C1000130C00041080319A1282F
:10013A00C00D4010FF3E9B2840089D00C0094008A2
:10014A009C00180884004008800584179B011B083E
:10015A00073C031CC6281B08C0001A08C100400837
:10016A000319BB28C10CC113FF3EB5281C08800522
:10017A00411CC1281D08800412201D0880049B0A06
:0A018A00AC288413032003200800B2
:100194008312991FD6280C0884002D3080009809FA
:1001A4009909980A0319990A1808C1001908C20084
:1001B400C20CC10CC213C20CC10CC213C20CC10CC0
:1001C400C213C20CC10CC21328304102031CF9280B
:1001D4008510CB30CB00EC30CC008430CD00CD0B7F
:1001E400F128CC0BF128CB0BF1280000FA28851458
:0201F400080001
:1001F6000D3083128C0030308D0030308E00303060
:100206008F002E30900030309100303092009301F4
:100216008316850183128501851405309800023006
:10022600990061200530980002309900CC309A0080
:100236009520053098000230990044309A009520A8
:100246004F30CD00CD0B2529000000000530980069
:100256000230990061200530980002309900CC30B8
:100266009A0095200530980002309900BE309A0019
:100276009520053098000230990026204008960007
:100286009701053098000230990026204008C300E7
:10029600C20116084207C00043080318013E1707AB
:1002A600C1004008960041089700400898004108A0
:1002B6009900CA201530CB004B30CC00BE30CD00A3
:1002C600CD0B6329CC0B6329CB0B632900001029C6
:0202D6006B2992
:02400E00FA3F77
:00000001FF
